:100000000C945E000C9486000C9486000C94860080
:100010000C9486000C9486000C9486000C94860048
:100020000C9486000C9486000C9486000C94860038
:100030000C9486000C9486000C9486000C94860028
:100040000C94EF010C9486000C945F020C9439021E
:100050000C9486000C9486000C9486000C94860008
:100060000C9486000C9486000000000024002700F9
:100070002A0000000000250028002B0004040404CE
:100080000404040402020202020203030303030342
:10009000010204081020408001020408102001021F
:1000A00004081020000000080002010000030407FB
:1000B000000000000000000091027C0411241FBE1B
:1000C000CFEFD8E0DEBFCDBF21E0A2E2B1E001C0BA
:1000D0001D92A33DB207E1F711E0A0E0B1E0E6EC2C
:1000E000FDE002C005900D92A232B107D9F710E0F1
:1000F000CDE5D0E004C02197FE010E94DE04CC359E
:10010000D107C9F70E941C030C94D6060C9400007A
:100110003FB7F8948091280190912901A0912A017C
:10012000B0912B0126B5A89B05C02F3F19F0019671
:10013000A11DB11D3FBFBA2FA92F982F8827BC0141
:10014000CD01620F711D811D911D42E0660F771F69
:10015000881F991F4A95D1F708958F929F92AF9269
:10016000BF92CF92DF92EF92FF920E9488004B01E4
:100170005C0188ECC82ED12CE12CF12C0E94880067
:10018000681979098A099B09683E734081059105C0
:10019000A8F321E0C21AD108E108F10888EE880E20
:1001A00083E0981EA11CB11CC114D104E104F10428
:1001B00029F7FF90EF90DF90CF90BF90AF909F9086
:1001C0008F900895AF92BF92CF92DF92EF92FF92FD
:1001D0000F931F93CF93DF936C017B018B01040F6F
:1001E000151FEB015E01AE18BF08C017D10759F00B
:1001F0006991D601ED91FC910190F081E02DC6014D
:100200000995892B79F7C501DF91CF911F910F9146
:10021000FF90EF90DF90CF90BF90AF900895FC01DA
:10022000538D448D252F30E0842F90E0821B930B5B
:10023000541710F0CF96089501970895FC01918D01
:10024000828D981761F0A28DAE0FBF2FB11D5D9604
:100250008C91928D9F5F9F73928F90E008958FEFA6
:100260009FEF0895FC01918D828D981731F0828D5A
:10027000E80FF11D858D90E008958FEF9FEF0895B1
:10028000FC01918D228D892F90E0805C9F4F821B15
:1002900091098F73992708958CE291E00E944001A3
:1002A00021E0892B09F420E0822F089580E090E07E
:1002B000892B29F00E944C0181110C9400000895B3
:1002C000FC01A48DA80FB92FB11DA35ABF4F2C91CB
:1002D000848D90E001968F739927848FA689B789C2
:1002E0002C93A089B1898C91837080648C93938DB9
:1002F000848D981306C00288F389E02D80818F7D5C
:1003000080830895EF92FF920F931F93CF93DF9313
:10031000EC0181E0888F9B8D8C8D98131AC0E88941
:10032000F989808185FF15C09FB7F894EE89FF8910
:100330006083E889F98980818370806480839FBFAE
:1003400081E090E0DF91CF911F910F91FF90EF90AE
:100350000895F62E0B8D10E00F5F1F4F0F731127BE
:10036000E02E8C8D8E110CC00FB607FCFACFE889F9
:10037000F989808185FFF5CFCE010E946001F1CF20
:10038000EB8DEC0FFD2FF11DE35AFF4FF0829FB76D
:10039000F8940B8FEA89FB8980818062CFCFCF935D
:1003A000DF93EC01888D8823B9F0AA89BB89E8899D
:1003B000F9898C9185FD03C0808186FD0DC00FB643
:1003C00007FCF7CF8C9185FFF2CF808185FFEDCFC1
:1003D000CE010E946001E9CFDF91CF9108951F9275
:1003E0000F920FB60F9211242F933F938F939F93E9
:1003F000AF93BF938091240190912501A091260194
:10040000B09127013091230123E0230F2D3758F5B8
:100410000196A11DB11D2093230180932401909387
:100420002501A0932601B093270180912801909186
:100430002901A0912A01B0912B010196A11DB11DA6
:100440008093280190932901A0932A01B0932B0156
:10045000BF91AF919F918F913F912F910F900FBEC0
:100460000F901F90189526E8230F0296A11DB11D2D
:10047000D2CF1F920F920FB60F9211242F933F935A
:100480004F935F936F937F938F939F93AF93BF939C
:10049000EF93FF938CE291E00E946001FF91EF9156
:1004A000BF91AF919F918F917F916F915F914F918C
:1004B0003F912F910F900FBE0F901F9018951F9294
:1004C0000F920FB60F9211242F938F939F93EF9358
:1004D000FF93E0913C01F0913D018081E091420168
:1004E000F091430182FD1BC09081809145018F5F97
:1004F0008F7320914601821741F0E0914501F0E0B1
:10050000E45DFE4F958F80934501FF91EF919F91A0
:100510008F912F910F900FBE0F901F901895808193
:10052000F4CF10922F0110922E0188EE93E0A0E0FC
:10053000B0E08093300190933101A0933201B093E9
:1005400033018CE091E090932D0180932C0185EC98
:1005500090E0909339018093380184EC90E090937F
:100560003B0180933A0180EC90E090933D018093B1
:100570003C0181EC90E090933F0180933E0182EC3E
:1005800090E0909341018093400186EC90E090933D
:10059000430180934201109245011092460110924E
:1005A0004701109248011092CA011092C90110929D
:1005B000CC011092CB011092CE011092CD0164E0DB
:1005C00070E090E080E00E940906009701F19093AE
:1005D000CA018093C90123E030E03093CC0120931D
:1005E000CB012091CD013091CE01232B11F4FC01E0
:1005F000108283E090E09093CE018093CD016AE178
:1006000071E08091C9019091CA010C94CF0680914C
:10061000C9019091CA01009711F00E9480051092C3
:10062000CA011092C9011092CE011092CD01109210
:10063000CC011092CB010895CF93DF93CDB7DEB7F5
:10064000A1970FB6F894DEBF0FBECDBF789484B5E6
:10065000826084BD84B5816084BD85B5826085BDBE
:1006600085B5816085BD80916E00816080936E004C
:10067000109281008091810082608093810080913E
:1006800081008160809381008091800081608093EF
:1006900080008091B10084608093B1008091B000AF
:1006A00081608093B00080917A00846080937A00AA
:1006B00080917A00826080937A0080917A008160D4
:1006C00080937A0080917A00806880937A001092FB
:1006D000C1007DE9C72E70E0D72EF6012491E9E82C
:1006E000AE2EE0E0BE2EF5018491882399F090E0D3
:1006F000880F991FFC01E859FF4FA591B491FC01A7
:10070000EE58FF4F859194918FB7F8949C91292BC7
:100710002C938FBFE0913C01F0913D0182E08083FA
:10072000E0913801F09139011082E0913A01F091A5
:100730003B018FEC808310924401E0914001F091E5
:10074000410186E08083E0913E01F0913F0180818C
:1007500080618083E0913E01F0913F01808188605B
:100760008083E0913E01F0913F0180818068808329
:10077000E0913E01F0913F0180818F7D80833AE0DE
:10078000432E512C612C712C41EB242E40E0342E51
:1007900050E0852E50E0952E2AE0E22EF12C40917B
:1007A000CD015091CE016091C9017091CA018CE2D6
:1007B00091E00E94E2002091220181E0820F80936B
:1007C000220130E050E040E019A28E010F5D1F4F82
:1007D000CA01B901A30192010E94BC04605DF80145
:1007E00062938F01211531054105510589F7309735
:1007F00061F001900020E9F73197AF01401B510BE8
:10080000B8018CE291E00E94E20042E050E06EE12B
:1008100071E08CE291E00E94E2000E94AD00F1E004
:10082000EF1AF10809F0BBCFF1019491F601849120
:10083000F50134913323F9F020910001992351F00F
:10084000933009F43FC0A0F5913009F441C09230D3
:1008500009F442C0E32FF0E0EE0FFF1FEE58FF4F08
:10086000A591B4919FB7F894211143C02C91809524
:1008700082238C939FBF0E94AD0081E090E0209185
:100880000001309101012130310511F490E080E048
:1008900090930101809300018114910409F47CCFAD
:1008A0000E944C01882309F477CF0E94000074CF86
:1008B0009730A9F09830C9F0943061F6909180009B
:1008C0009F7D03C0909180009F7790938000C2CF5E
:1008D00094B59F7794BDBECF94B59F7DFBCF90918B
:1008E000B0009F779093B000B5CF9091B0009F7DFE
:1008F000F9CF2C91822BBDCF8091C9019091CA0173
:10090000009711F00C94800508952F923F924F921A
:100910005F926F927F928F929F92AF92BF92CF928F
:10092000DF92EF92FF920F931F93CF93DF93CDB798
:10093000DEB7CA1BDB0B0FB6F894DEBF0FBECDBF10
:1009400009942A88398848885F846E847D848C84E1
:100950009B84AA84B984C884DF80EE80FD800C81EA
:100960001B81AA81B981CE0FD11D0FB6F894DEBFCD
:100970000FBECDBFED010895A1E21A2EAA1BBB1B2D
:10098000FD010DC0AA1FBB1FEE1FFF1FA217B3075B
:10099000E407F50720F0A21BB30BE40BF50B661F71
:1009A000771F881F991F1A9469F760957095809535
:1009B00090959B01AC01BD01CF010895EE0FFF1F83
:1009C0000590F491E02D09940F931F93CF93DF933B
:1009D0008230910510F482E090E0E091D101F09135
:1009E000D20130E020E0B0E0A0E0309799F421158A
:1009F000310509F44AC0281B390B24303105D8F5DC
:100A00008A819B816115710589F1FB019383828342
:100A1000FE0111C04081518102811381481759079D
:100A2000E0F04817590799F4109761F012960C936B
:100A3000129713961C933296CF01DF91CF911F919D
:100A40000F9108950093D1011093D201F4CF211595
:100A5000310551F04217530738F0A901DB019A0123
:100A6000BD01DF01F801C1CFEF01F9CF9093D201B1
:100A70008093D101CDCFFE01E20FF31F81939193BB
:100A80002250310939832883D7CF2091CF0130916B
:100A9000D001232B41F420910401309105013093C2
:100AA000D0012093CF012091020130910301211543
:100AB000310541F42DB73EB7409106015091070131
:100AC000241B350BE091CF01F091D001E217F30721
:100AD000A0F42E1B3F0B2817390778F0AC014E5FAE
:100AE0005F4F2417350748F04E0F5F1F5093D0011A
:100AF0004093CF01819391939FCFF0E0E0E09CCFB2
:100B0000CF93DF930097E9F0FC01329713821282B2
:100B1000A091D101B091D201ED0130E020E0109719
:100B2000A1F420813181820F931F2091CF01309158
:100B3000D0012817390709F061C0F093D001E09384
:100B4000CF01DF91CF910895EA01CE17DF07E8F5D5
:100B50004A815B819E0141155105B1F7E901FB8393
:100B6000EA8349915991C40FD51FEC17FD0761F431
:100B7000808191810296840F951FE9019983888372
:100B8000828193819B838A83F0E0E0E012968D91CD
:100B90009C9113970097B9F52D913C911197CD0138
:100BA0000296820F931F2091CF013091D001281718
:100BB000390739F6309751F51092D2011092D101D0
:100BC000B093D001A093CF01BCCFD383C283408127
:100BD0005181840F951FC817D90761F44E5F5F4F8D
:100BE00088819981480F591F518340838A819B8155
:100BF000938382832115310509F0B0CFF093D201A0
:100C0000E093D1019ECFFD01DC01C0CF138212829F
:100C1000D7CFB0E0A0E0EFE0F6E00C9487048C01C1
:100C2000009751F4CB010E94E4048C01C801CDB7B8
:100C3000DEB7E0E10C94A304FC01E60FF71F9C0172
:100C400022503109E217F30708F49DC0D901CD9174
:100C5000DC911197C617D70798F0C530D10530F34E
:100C6000CE0104978617970708F3C61BD70B229768
:100C7000C193D1936D937C93CF010E948005D6CF11
:100C80005B01AC1ABD0A4C018C0E9D1EA091D101D6
:100C9000B091D201512C412CF12CE12C109731F55F
:100CA0008091CF019091D0018815990509F05CC021
:100CB0004616570608F058C0809102019091030132
:100CC000009741F48DB79EB74091060150910701FE
:100CD000841B950BE817F90708F055C0F093D00175
:100CE000E093CF01F90171836083A0CF8D919C9136
:100CF000119712966C90129713967C901397A815E3
:100D0000B90559F56C0142E0C40ED11CCA14DB04CC
:100D100020F1AC014A195B09DA011296159780F0AF
:100D20006282738251834083D9016D937C93E11475
:100D3000F10471F0D7011396FC93EE93129776CFDE
:100D400022968C0F9D1FF90191838083F301EFCFD1
:100D5000F093D201E093D10169CF4816590608F407
:100D60002C017D01D3019ACFCB010E94E4047C01C8
:100D7000009749F0AE01B8010E94C606C8010E9462
:100D80008005870153CF10E000E050CFFB01DC016C
:100D900002C001900D9241505040D8F70895FB01D8
:100DA000DC0101900D920020E1F7089510E0CDE5FF
:100DB000D0E004C0FE010E94DE042196CE35D107AA
:060DC000C9F7F894FFCF13
:100DC60001000000D3018000000000008201E20063
:100DD6000F01CF0140011E01320141542B000D0AC3
:020DE60000000B
:00000001FF
