:100000000C9436000C945E000C945E000C945E0020
:100010000C945E000C945E000C945E000C945E00E8
:100020000C945E000C945E000C945E000C945E00D8
:100030000C945E000C945E000C945E000C945E00C8
:100040000C9492010C945E000C9402020C94DC015E
:100050000C945E000C945E000C945E000C945E00A8
:100060000C945E000C945E003402BE0311241FBE8B
:10007000CFEFD8E0DEBFCDBF21E0A0E2B1E001C00C
:100080001D92A13DB207E1F711E0A0E0B1E0EAE482
:10009000FCE002C005900D92A032B107D9F710E044
:1000A000C5E3D0E004C02197FE010E942004C433C0
:1000B000D107C9F70E94BF020C9418060C940000E7
:1000C0003FB7F8948091260190912701A0912801D3
:1000D000B091290126B5A89B05C02F3F19F00196C4
:1000E000A11DB11D3FBFBA2FA92F982F8827BC0192
:1000F000CD01620F711D811D911D42E0660F771FBA
:10010000881F991F4A95D1F70895AF92BF92CF9259
:10011000DF92EF92FF920F931F93CF93DF936C01C7
:100120007B018B01040F151FEB015E01AE18BF08A8
:10013000C017D10759F06991D601ED91FC9101905A
:10014000F081E02DC6010995892B79F7C501DF9172
:10015000CF911F910F91FF90EF90DF90CF90BF90C4
:10016000AF900895FC01538D448D252F30E0842FEE
:1001700090E0821B930B541710F0CF9608950197CF
:100180000895FC01918D828D981761F0A28DAE0FBC
:10019000BF2FB11D5D968C91928D9F5F9F73928F43
:1001A00090E008958FEF9FEF0895FC01918D828D6F
:1001B000981731F0828DE80FF11D858D90E008953C
:1001C0008FEF9FEF0895FC01918D228D892F90E094
:1001D000805C9F4F821B91098F73992708958AE253
:1001E00091E00E94E30021E0892B09F420E0822FB6
:1001F000089580E090E0892B29F00E94EF008111A2
:100200000C9400000895FC01A48DA80FB92FB11D16
:10021000A35ABF4F2C91848D90E001968F7399273C
:10022000848FA689B7892C93A089B1898C9183701A
:1002300080648C93938D848D981306C00288F38913
:10024000E02D80818F7D80830895EF92FF920F9340
:100250001F93CF93DF93EC0181E0888F9B8D8C8D72
:1002600098131AC0E889F989808185FF15C09FB766
:10027000F894EE89FF896083E889F9898081837029
:10028000806480839FBF81E090E0DF91CF911F91D8
:100290000F91FF90EF900895F62E0B8D10E00F5FF9
:1002A0001F4F0F731127E02E8C8D8E110CC00FB6CF
:1002B00007FCFACFE889F989808185FFF5CFCE0167
:1002C0000E940301F1CFEB8DEC0FFD2FF11DE35ADE
:1002D000FF4FF0829FB7F8940B8FEA89FB898081EA
:1002E0008062CFCFCF93DF93EC01888D8823B9F064
:1002F000AA89BB89E889F9898C9185FD03C0808131
:1003000086FD0DC00FB607FCF7CF8C9185FFF2CFAD
:10031000808185FFEDCFCE010E940301E9CFDF91FF
:10032000CF9108951F920F920FB60F9211242F9321
:100330003F938F939F93AF93BF93809122019091AE
:100340002301A0912401B09125013091210123E0E6
:10035000230F2D3758F50196A11DB11D20932101C2
:100360008093220190932301A0932401B09325014F
:100370008091260190912701A0912801B091290137
:100380000196A11DB11D8093260190932701A09392
:100390002801B0932901BF91AF919F918F913F9117
:1003A0002F910F900FBE0F901F90189526E8230FE6
:1003B0000296A11DB11DD2CF1F920F920FB60F92C0
:1003C00011242F933F934F935F936F937F938F935A
:1003D0009F93AF93BF93EF93FF938AE291E00E94C4
:1003E0000301FF91EF91BF91AF919F918F917F9109
:1003F0006F915F914F913F912F910F900FBE0F9092
:100400001F9018951F920F920FB60F9211242F93E1
:100410008F939F93EF93FF93E0913A01F0913B010B
:100420008081E0914001F091410182FD1BC09081EB
:10043000809143018F5F8F7320914401821741F0B7
:10044000E0914301F0E0E65DFE4F958F809343011C
:10045000FF91EF919F918F912F910F900FBE0F9071
:100460001F9018958081F4CF10922D0110922C01CD
:1004700088EE93E0A0E0B0E080932E0190932F01EE
:10048000A0933001B09331018AE091E090932B0169
:1004900080932A0185EC90E0909337018093360198
:1004A00084EC90E0909339018093380180EC90E0E7
:1004B00090933B0180933A0181EC90E090933D0151
:1004C00080933C0182EC90E090933F0180933E0149
:1004D00086EC90E09093410180934001109243019B
:1004E0001092440110924501109246011092C801E9
:1004F0001092C7011092CA011092C9011092CC014A
:100500001092CB0164E070E090E080E00E944B0527
:10051000009701F19093C8018093C70123E030E078
:100520003093CA012093C9012091CB013091CC01B5
:10053000232B11F4FC01108283E090E09093CC0116
:100540008093CB0168E171E08091C7019091C8016F
:100550000C9411068091C7019091C801009711F089
:100560000E94C2041092C8011092C7011092CC01DF
:100570001092CB011092CA011092C9010895CF9335
:10058000DF93CDB7DEB7A1970FB6F894DEBF0FBEED
:10059000CDBF789484B5826084BD84B5816084BD0C
:1005A00085B5826085BD85B5816085BD80916E0011
:1005B000816080936E001092810080918100826042
:1005C000809381008091810081608093810080917F
:1005D00080008160809380008091B100846080936E
:1005E000B1008091B00081608093B00080917A006A
:1005F000846080937A0080917A00826080937A0090
:1006000080917A00816080937A0080917A0080687E
:1006100080937A001092C100E0913A01F0913B0181
:1006200082E08083E0913601F09137011082E09101
:100630003801F09139018FEC808310924201E091F2
:100640003E01F0913F0186E08083E0913C01F09112
:100650003D01808180618083E0913C01F0913D010A
:10066000808188608083E0913C01F0913D01808130
:1006700080688083E0913C01F0913D0180818F7D15
:1006800080839AE0892E912CA12CB12C20E0222E7F
:1006900020E0322E4091CB015091CC016091C701F6
:1006A0007091C8018AE291E00E94850020912001AA
:1006B00081E0820F8093200130E050E040E019A2F9
:1006C0008E010F5D1F4FCA01B901A50194010E945F
:1006D000FE03605DF80162938F012115310541052C
:1006E000510589F7309761F001900020E9F73197C3
:1006F000AF01401B510BB8018AE291E00E948500D6
:1007000042E050E06CE171E08AE291E00E948500F5
:100710000E9460006B017C0188EC482E512C612CFA
:10072000712C0E9460006C197D098E099F09683E3A
:10073000734081059105A8F3F1E04F1A5108610853
:10074000710828EEC20E23E0D21EE11CF11C4114F8
:1007500051046104710429F7809120018F3F11F445
:10076000109220012114310409F494CF0E94EF006B
:10077000882309F48FCF0E9400008CCF8091C7019D
:100780009091C801009711F00C94C20408952F9223
:100790003F924F925F926F927F928F929F92AF9211
:1007A000BF92CF92DF92EF92FF920F931F93CF935E
:1007B000DF93CDB7DEB7CA1BDB0B0FB6F894DEBFF5
:1007C0000FBECDBF09942A88398848885F846E841B
:1007D0007D848C849B84AA84B984C884DF80EE8065
:1007E000FD800C811B81AA81B981CE0FD11D0FB66E
:1007F000F894DEBF0FBECDBFED010895A1E21A2E21
:10080000AA1BBB1BFD010DC0AA1FBB1FEE1FFF1FB4
:10081000A217B307E407F50720F0A21BB30BE40B04
:10082000F50B661F771F881F991F1A9469F760954B
:100830007095809590959B01AC01BD01CF01089505
:10084000EE0FFF1F0590F491E02D09940F931F9375
:10085000CF93DF938230910510F482E090E0E09135
:10086000CF01F091D00130E020E0B0E0A0E030977F
:1008700099F42115310509F44AC0281B390B24309D
:100880003105D8F58A819B816115710589F1FB01DC
:1008900093838283FE0111C04081518102811381C3
:1008A00048175907E0F04817590799F4109761F075
:1008B00012960C93129713961C933296CF01DF91E8
:1008C000CF911F910F9108950093CF011093D00104
:1008D000F4CF2115310551F04217530738F0A90123
:1008E000DB019A01BD01DF01F801C1CFEF01F9CFB2
:1008F0009093D0018093CF01CDCFFE01E20FF31F83
:10090000819391932250310939832883D7CF209145
:10091000CD013091CE01232B41F420910201309181
:1009200003013093CE012093CD012091000130913D
:1009300001012115310541F42DB73EB74091040165
:1009400050910501241B350BE091CD01F091CE01B2
:10095000E217F307A0F42E1B3F0B2817390778F096
:10096000AC014E5F5F4F2417350748F04E0F5F1FF5
:100970005093CE014093CD01819391939FCFF0E0AE
:10098000E0E09CCFCF93DF930097E9F0FC01329732
:1009900013821282A091CF01B091D001ED0130E01D
:1009A00020E01097A1F420813181820F931F2091C4
:1009B000CD013091CE012817390709F061C0F093BD
:1009C000CE01E093CD01DF91CF910895EA01CE17DA
:1009D000DF07E8F54A815B819E0141155105B1F7BA
:1009E000E901FB83EA8349915991C40FD51FEC17A4
:1009F000FD0761F4808191810296840F951FE901C2
:100A000099838883828193819B838A83F0E0E0E0ED
:100A100012968D919C9113970097B9F52D913C9169
:100A20001197CD010296820F931F2091CD01309135
:100A3000CE012817390739F6309751F51092D001B9
:100A40001092CF01B093CE01A093CD01BCCFD38340
:100A5000C28340815181840F951FC817D90761F463
:100A60004E5F5F4F88819981480F591F51834083A2
:100A70008A819B81938382832115310509F0B0CF50
:100A8000F093D001E093CF019ECFFD01DC01C0CFF8
:100A900013821282D7CFB0E0A0E0E1E5F5E00C943C
:100AA000C9038C01009751F4CB010E9426048C01EC
:100AB000C801CDB7DEB7E0E10C94E503FC01E60F19
:100AC000F71F9C0122503109E217F30708F49DC07B
:100AD000D901CD91DC911197C617D70798F0C53091
:100AE000D10530F3CE0104978617970708F3C61B8C
:100AF000D70B2297C193D1936D937C93CF010E9422
:100B0000C204D6CF5B01AC1ABD0A4C018C0E9D1EEF
:100B1000A091CF01B091D001512C412CF12CE12CAE
:100B2000109731F58091CD019091CE0188159905EE
:100B300009F05CC04616570608F058C080910001C5
:100B400090910101009741F48DB79EB74091040147
:100B500050910501841B950BE817F90708F055C063
:100B6000F093CE01E093CD01F90171836083A0CFB2
:100B70008D919C91119712966C90129713967C9080
:100B80001397A815B90559F56C0142E0C40ED11CA4
:100B9000CA14DB0420F1AC014A195B09DA01129690
:100BA000159780F06282738251834083D9016D93DF
:100BB0007C93E114F10471F0D7011396FC93EE934A
:100BC000129776CF22968C0F9D1FF9019183808317
:100BD000F301EFCFF093D001E093CF0169CF481636
:100BE000590608F42C017D01D3019ACFCB010E9454
:100BF00026047C01009749F0AE01B8010E94080666
:100C0000C8010E94C204870153CF10E000E050CF1A
:100C1000FB01DC0102C001900D9241505040D8F719
:100C20000895FB01DC0101900D920020E1F7089589
:100C300010E0C5E3D0E004C0FE010E94200421962C
:0A0C4000C633D107C9F7F894FFCFBF
:100C4A000000D10180000000000025018500B200EB
:100C5A007201E300C100D50041542B000D0A0000C7
:00000001FF
